:020000040800F2
:10000000A8060020C5000008392E0008BB240008FF
:1000100000000000000000000000000000000000E0
:100020000000000000000000000000008F30000809
:1000300000000000000000008D3000089130000832
:10004000D7000008D7000008D7000008D700000834
:10005000D70000086F0500087F050008D7000008DA
:100060000000000015050008D7000008D7000008B0
:10007000D7000008D7000008D7000008D700000804
:10008000953100080000000000000000D7000008C3
:1000900000000000D7000008D7000008D7000008C3
:1000A00000000000D700000800000000D700000892
:1000B0000348854600F058F900480047A14500086C
:1000C000A80600200448804704480047FEE7FEE7F2
:1000D000FEE7FEE7FEE7FEE721310008B100000879
:1000E00030B50B46014600202022012409E00D46D0
:1000F000D5409D4205D31D469540491B2546954058
:1001000040191546521E002DF1DC30BD70B500249B
:100110002546002801DA01244042002901DA0125A0
:100120004942FFF7DDFFAC4200D04042002C00D036
:10013000494270BDD2B201E00270401C491EFBD2A0
:1001400070470022F6E710B513460A4604461946E2
:10015000FFF7F0FF204610BDF8B502464A40D40F25
:1001600042004B0052085B089A4202D202460846FF
:1001700011464A0023D0C30D4A00DDB2120EAD1A5B
:10018000202D35DA49020126490AF6058A19002C84
:1001900000D0524220214F1B1146B9402A4110186D
:1001A000C20D9A4221D0002C17D0012D08DCDA05AF
:1001B000801AD20F8019D207DBB200F09BF8F8BD8D
:1001C000DA05801A012340001B06C01880185A4225
:1001D0008018CA0F1043490007E04908C2071143BD
:1001E000DA05801A80194008801800F07BF8F8BD05
:1001F00061000122511A001BF7E70122D20751408A
:10020000AAE70122D2075040A6E7024670B54A404D
:10021000D30FDB0740002DD04A002AD0010E140E68
:10022000000212020919400A520A8418E501044624
:100230005443000A120A2E045043A4194219200CF8
:10024000C543AA18120C0125AD03521C5219120401
:100250007F39240400D0521C104301D44000491EB1
:10026000C2B20C06C0092018401C4008802A02D0E7
:1002700003E0002070BD40084000002900DA0020A3
:10028000184370BD10B500229623114600F032F8D5
:1002900010BD410040020122400AD205090E80181B
:1002A0007F2901DA00207047962903DC9622511A33
:1002B000C840704796398840704700000122D20735
:1002C000002800DB101A002900DB511A8142704718
:1002D0000122D207002800DB101A002900DB511A86
:1002E00088427047002904DA401C490001D14008C7
:1002F0004000704770B40024050C05D110240004A0
:1003000002D1002921D01124050E01D100020834A8
:10031000050F01D10001241D850F01D18000A41C0F
:10032000002801DB4000641C002908D020252E1B7A
:100330000D46F540A14000D00121294308430106A4
:100340001B1B000ADB1D02D5002070BC7047DB05BB
:10035000181880180029F8DA401C4900F5D170BC43
:100360004008400070470000064C0125064E05E09D
:10037000E36807CC2B430C3C98471034B442F7D3C6
:10038000FFF79AFE385F0008585F000870B5054611
:100390006C6A606C50210840002835D1606C0121E6
:1003A0004902084360642068C0680321890208404C
:1003B000002825D1206A002822D120680068082161
:1003C000084008281CD12068806804210840800863
:1003D00000280DD1206840680C21884321684860BE
:1003E000606CFF210131884301210843606407E00C
:1003F000606C202108436064A06C01210843A06464
:10040000204600F099F903E0E06B016B284688472D
:1004100070BD70B505466C6A606C4021084360642D
:10042000A06C04210843A064204600F087F970BD49
:1004300070B50446656A284600F07FF970BD00007B
:1004400038B50446002500200090206880688007A9
:10045000800F01280ED120680068C007C00F002857
:1004600006D12068C0680121C9030840884201D133
:10047000012000E00020002843D120688068224944
:100480000840002801D1012000E00020002809D107
:10049000606C102108436064A06C01210843A064D3
:1004A000012038BD206880680121084321688860E8
:1004B000164917480068FFF713FE009002E0009805
:1004C000401E009000980028F9D100F0F3FC05468A
:1004D0000EE000F0EFFC401B022809D9606C1021EF
:1004E00008436064A06C01210843A0640120D8E7A0
:1004F00020680068C007C00F01214840484000281C
:10050000E7D00020CDE700001700008040420F0038
:10051000D000002010B5024800F0AEFA10BD000077
:100520009801002010B50446054A2168881A142154
:10053000FFF7D6FD8000206401480838E06310BD55
:100540000800024030B50124056CAC40C56B6C60FE
:10055000046863604468102C04D10468A2600468D5
:10056000E16003E00468A1600468E26030BD10B59A
:10057000012000F08FFB022000F08CFB10BD10B5B5
:10058000042000F087FB10BD70470000F8B504465A
:100590000D4600260020009001210907A06B88422B
:1005A00015D0A06B012812D0A06B02280FD0A06B31
:1005B00003280CD0A06B042809D0A06B052806D016
:1005C000A06B062803D0A06B072800D000BF00BF97
:1005D0004020005D012801D10220F8BD012140200A
:1005E000015500BF20688068042108408008002869
:1005F0007ED14D496868884264D02068806A2A7834
:100600000121914008432168886201210907A06BFC
:10061000884229D0A06B012826D0A06B022823D0C5
:10062000A06B032820D0A06B04281DD0A06B052848
:100630001AD0A06B062817D0A06B072814D0A86882
:10064000216849694907490F88420DD020684069EF
:10065000C008C0002168486120684069297A4907BC
:10066000490F0843216848612868102805D0286888
:10067000112802D0286812284FD12C488068296898
:10068000102901D1C90407E02968112902D10121EB
:10069000890501E00121090608432449886028688A
:1006A00010283AD1224923480068FFF719FD0A2192
:1006B0004843009002E00098401E009000980028F7
:1006C000F9D12AE02068816A2A780120904081438C
:1006D000206881622868102805D02868112802D077
:1006E0002868122819D1114880682968102900E06B
:1006F0000EE001D1C90407E02968112902D10121C6
:10070000890501E00121090688430849886004E061
:10071000606C202108436064012600BF0021402056
:10072000015500BF304658E7011000000027014086
:1007300040420F00D0000020704770477047000013
:1007400070B5044600260025002C01D1012070BDA3
:10075000606C002806D1A06400214020015520468D
:1007600000F0CEF8606C1021084000287ED1002EE9
:10077000FCD1206880680421084080080028F5D159
:10078000606C8901884302210843606420688068A6
:100790008007800F01280DD120680068C007C00FB6
:1007A000002805D12068C06889030840884201D12B
:1007B000012000E0002000280FD12068C068182127
:1007C0008843A16808432168C860206800698000E8
:1007D000800861680843216808612068C06846494C
:1007E00008402168C860A0698003E169C903084323
:1007F000216A49030843616B012902D001210903E1
:1008000000E000210843E16808432169022901D181
:10081000042100E000210843216B490008430543FF
:10082000606A01280ED1206A002803D1012000044B
:10083000054307E0606C202108436064A06C01213F
:100840000843A064FF21C231A06A884203D0E16A54
:10085000A06A084305432068C06828432168C8602F
:1008600001210907A06B884216D000E03DE0A06B93
:10087000012811D0A06B02280ED0A06B03280BD04A
:10088000A06B042808D0A06B052805D0A06B062813
:1008900002D0A06B07280DD120684069C008C000B5
:1008A0002168486120684069218F4907490F084342
:1008B000216848612068C06810490840A84208D1F2
:1008C0000020A064606C0221884301210843606419
:1008D00010E0606C02218843102108436064A06C22
:1008E00001210843A064012604E0606C1021084344
:1008F0006064012630462AE71902FEFFE7FF3F83C6
:1009000010B586B00446142101A8FFF71AFC264949
:100910002068884245D100BF2448806949150843B2
:10092000224988610846806949150840009000BF47
:1009300000BF00BF1D484069090208431B494861C8
:1009400008464069012149040840009000BF00BFEB
:1009500038200190032002900020039001A9092073
:10096000C00600F0A7F9124812490860002048604C
:100970000021104881608021C16049000161890027
:1009800041610021816101210903C16100F0ECF89E
:10099000002801D0FFF7F8FD00BF0648E06344627D
:1009A00000BF06B010BD000000240140001002404E
:1009B0000800024098010020F8B504460D4616468E
:1009C000002720688068042108408008002848D15A
:1009D00000BF4020005D012801D10220F8BD0121A7
:1009E0004020015500BFE069012803D02046FFF7F1
:1009F00027FD0746002F35D1606C1B490840FF21B9
:100A00000131084360640020A06400BF0021402041
:100A1000015500BF1548E16B88621548E16BC8625B
:100A20001448E16B08631C20216808602068406856
:100A300010210843216848602068C06801210843EC
:100A40002168C86022681146403133462A46E06B6F
:100A500000F0BCF8206880680421084321688860A1
:100A600000E002273846B9E7FEF1FFFF8D030008DA
:100A7000310400081304000870B50446E06B0568F3
:100A8000206806680420216C8840284000281BD07C
:100A900004203040002817D020680068202108403A
:100AA000002805D120680068042188432168086077
:100AB0000420216C8840E16B4860E06A002852D035
:100AC0002046E16A88474EE00220216C8840284099
:100AD000002823D00220304000281FD02068006862
:100AE00020210840002808D1206800680A21884396
:100AF000216808600121212001550220216C8840D5
:100B0000E16B486000BF00212020015500BFA06AB2
:100B1000002828D02046A16A884724E00820216CBC
:100B20008840284000281ED00820304000281AD0D5
:100B3000206800680E218843216808600120216C2C
:100B40008840E16B48600120A0630121212001550C
:100B500000BF00212020015500BF206B002802D0DB
:100B60002046216B884770BD70B504460025002CD7
:100B700001D1012070BD02212120015520680568A6
:100B800011480540A16860680843E168084321698D
:100B9000084361690843A1690843E16908430543C3
:100BA000206805602046FFF7BDFC0020A062E062DF
:100BB00020636063A06301212120015500212020D2
:100BC00001550020D6E700000FC0FFFFF8B504462E
:100BD0000D4616461F460020009000BF2020005DF5
:100BE000012801D10220F8BD01212020015500BFBC
:100BF0002120005D01282DD1022121200155002056
:100C0000A0632068006840084000216808603B46F7
:100C1000324629462046FFF795FCE06A002806D0B8
:100C2000206800680E210843216808600BE02068F6
:100C300000680A21084321680860206800680421D0
:100C40008843216808602068006801210843216802
:100C5000086006E000BF00212020015500BF0220EF
:100C600000900098BFE731B500F024F90546009CDC
:100C7000601C002800D0641C00BF00F01BF9401B62
:100C8000A042FAD338BD10B50446204603F026FB37
:100C900010BD000010B504460548406920400028FA
:100CA00004D0034844612046FFF7EDFF10BD00006B
:100CB0000004014078B50346002200240020D9E05A
:100CC000012696400D6835402C46002C7ED04D689C
:100CD000022D02D04D68122D15D1D508AE001D464B
:100CE0002035A8595507EE0E0F25B5400646AE43F0
:100CF00030465607F60E0D69B5402843D508AD00BD
:100D00001E4620367051186856000325B540064629
:100D1000AE4330460D79AD07AD0F5600B5402843C0
:100D200018604D68012D08D04D68022D05D04D6822
:100D3000112D02D04D68122D18D198685600032548
:100D4000B5400646AE4330465600CD68B540284310
:100D500098605868012595400646AE4330461026F7
:100D60004D6835402D09954028435860D868560095
:100D70000325B5400646AE43304656008D68B54063
:100D80002843D860012636074D683540B54270D1FA
:100D900000BF3B4DAD6901263543394EB56135463F
:100DA000AD69ED07ED0F009500BF00BF354D96080A
:100DB000B600A85995072E0F0F25B5400646AE433D
:100DC00030460925ED06AB4203D100E051E0002595
:100DD0000AE02D4DAB4201D1012505E02B4DAB4280
:100DE00001D1022500E005259607360FB5402843BE
:100DF000244D9608B600A851254D28680546A54300
:100E00002846012636044D683540B54202D10546D4
:100E1000254328461E4D286068680546A543284698
:100E2000012676044D683540B54202D1054625437A
:100E30002846174D6860A8680546A5432846012640
:100E400036054D683540B54202D105462543284652
:100E50000F4DA860E8680546A5432846012676059B
:100E60004D683540B54202D1054625432846084D18
:100E7000E860521C0D68D540002D00D020E778BDF9
:100E8000001002400800014000040048000800482B
:100E900000040140024613690B40002B01D00120E1
:100EA00000E000207047002A01D0816100E08162EB
:100EB000704700000148006870470000CC00002027
:100EC00002464120805C20282FD100BF4020805C5A
:100ED000012801D10220704701234020835400BF24
:100EE00024234120835410680068400840001368A0
:100EF00018601068006801231B039843136818608A
:100F000010680068084313681860106800680123BF
:100F100018431368186020234120835400BF002326
:100F20004020835400BF0020D5E70220D3E710B54E
:100F300002460B4600214120805C20282ED100BFB4
:100F40004020805C012801D1022010BD01244020F6
:100F5000845400BF24244120845410680068400851
:100F6000400014682060106801680F2424020846BD
:100F7000A043014618020143106801601068006830
:100F8000012420431468206020244120845400BFA1
:100F900000244020845400BF0020D6E70220D4E77C
:100FA00010B50446002C01D1012010BD4120005D88
:100FB000002805D1002140200155204600F03CF9D1
:100FC0002421412001552068006840084000216824
:100FD00008600F210906606888432168086120685D
:100FE00080680121C903884321688860E06801287E
:100FF00006D10121C903A06808432168886005E083
:1010000021218902A068084321688860E0680228DD
:1010100002D1800221684860206840681449084372
:10102000216848602068C0680121C903884321689D
:10103000C860616920690843A16909020843216801
:10104000C860216AE0690843216808602068006878
:1010500001210843216808600020606420214120AC
:1010600001550020206300214220015500209CE70B
:1010700000800002FFB583B004460C9F0E9E002541
:101080004120005D202870D1002F02D00D9800284B
:1010900002D1012007B0F0BD00BF4020005D012853
:1010A00001D10220F6E701214020015500BFFFF7E2
:1010B00001FF054619230122D1032046009501F0C6
:1010C000C3FA002801D00320E4E721214120015583
:1010D0004021422001550020606467620D986085C0
:1010E0000020606300960195204604A90EC901F016
:1010F00049FA002810D0606C042806D100BF0021F6
:101100004020015500BF0120C4E700BF002140205E
:10111000015500BF0320BDE7608DFF280CD9FF20DB
:10112000208500200090208DC2B201231B0620469E
:10113000049901F071FA0BE0608D20850020009089
:10114000208DC2B201235B062046049901F064FAA7
:1011500000BF2A463146204601F0CCFA002807D0CD
:10116000606C042802D1012094E760E0032091E73D
:10117000616A481C6062087821688862608D401E40
:101180006085208D401E2085208D002829D1608D0E
:10119000002826D03346002280212046009501F009
:1011A00053FA002801D0032074E7608DFF280CD982
:1011B000FF20208500200090208DC2B201231B0655
:1011C0002046049901F028FA0BE0608D208500206C
:1011D0000090208DC2B201235B062046049901F0E5
:1011E0001BFA608D0028B4D12A463146204601F012
:1011F00054FA002806D0606C042801D1012049E788
:10120000032047E720202168C86120684068094919
:1012100008402168486020214120015500214220DA
:10122000015500BF4020015500BF002032E70220D9
:1012300030E7000000E800FE10B586B00446142137
:1012400001A8FEF77EFF1A49206888422DD100BF11
:101250001848406901218904084316494861084635
:101260004069012189040840009000BF00BFC020F0
:10127000019012200290012003900320049001208D
:10128000059001A90C48FFF715FD00BF0948C0698A
:101290000121490508430749C8610846C069012181
:1012A00049050840009000BF00BF06B010BD000017
:1012B000005400400010024000040048024800684A
:1012C000401C014908607047CC00002010B506485A
:1012D00000681021084304490860002000F006F867
:1012E00000F018F8002010BD0020024070B5044640
:1012F00000F0B8F906467D21C900FEF7F1FE05466B
:1013000000F0BEFC00222146501E00F02FF8002005
:1013100070BD000008B500BF0D4880690121084379
:101320000B49886108468069C007C00F009000BF64
:1013300000BF00BF0846C069090408430449C861EA
:101340000846C06909040840009000BF00BF08BDFE
:101350000010024000BFC206D20E01219140024A95
:10136000116000BF7047000000E100E070B5044666
:101370000D4616462946204601F060FD70BD00006E
:10138000F8B504460026002501210904206808401C
:1013900088427AD100274B48C069090308400028D9
:1013A0000DD100BF4748C06908434649C861084697
:1013B000C06909040840009000BF00BF01274248EF
:1013C0000068FF2101310840002816D13E4800681E
:1013D00008433D490860FFF76DFD064606E0FFF74C
:1013E00069FD801B642801D90320F8BD36480068D8
:1013F000FF21013108400028F1D03248006A032162
:10140000090208400546002D2DD060680840A8421A
:1014100029D02C48006A884305462A48006A0121E1
:1014200009040843274908620846006A01210904A3
:1014300088432449086208460562E807C00F00286F
:1014400011D0FFF737FD064607E0FFF733FD801B9D
:101450001E49884201D90320C7E71A48006A0221C1
:1014600008400028F1D01748006A03210902884388
:101470006168084313490862012F05D10846C06915
:10148000090488430F49C86100BF2078C007C00F16
:10149000002807D00B48006B80088000A168084333
:1014A00008490863202120680840202807D1054802
:1014B000006B10218843E16808430249086300205B
:1014C00093E7000000100240007000408813000005
:1014D00070B504460D4600265D480068C007C00F81
:1014E000A8420ED25A480068400840002843584994
:1014F000086008460068C007C00FA84201D001205C
:1015000070BD022120680840022807D15148406878
:10151000F0218843A16808434E4948602078C007FD
:10152000C00F00285FD06068012808D149480068D2
:10153000012149040840002815D10120E0E7606836
:10154000022808D1434800680121490608400028C4
:1015500009D10120D4E73F48006802210840002853
:1015600001D10120CCE73B484068800880006168D9
:10157000084338494860FFF79DFC0646606801282B
:101580000FD107E0FFF796FC801B3349884201D951
:101590000320B5E72F4840680C2108400428F1D10A
:1015A00021E0606802280FD107E0FFF783FC801B71
:1015B0002949884201D90320A2E7264840680C2126
:1015C00008400828F1D10EE007E0FFF773FC801B0C
:1015D0002149884201D9032092E71E4840680C2126
:1015E00008400028F1D11A480068C007C00FA8427F
:1015F0000ED9174800684008400028431449086085
:1016000008460068C007C00FA84201D0012077E754
:10161000042120680840042808D10E4840680721AA
:1016200009028843E16808430A49486000F020F84D
:1016300008494968F02211400909084A515CC8402C
:10164000074908600020FFF751FE002058E700001E
:10165000002002400010024088130000205F0008B4
:10166000D00000200148006870470000D000002032
:10167000F0B589B024A001460EC9C06805AC0EC4FF
:10168000089025A001460EC9C06801AC0EC40490A4
:1016900000240027002500260020009022484468EE
:1016A0000C202040002827D0042802D0082822D16E
:1016B00002E01E48009022E00F2080042040800CB1
:1016C00005A90E5C1848C06A0007000F01A90F5C4D
:1016D00001200004204001210904884206D1394636
:1016E0001248FEF7FDFC7043054602E010483546FF
:1016F0004543009503E000BF0C48009000BF00BFC9
:10170000009809B0F0BD00000203040506070809AF
:101710000A0B0C0D0E0F101001020304050607083A
:10172000090A0B0C0D0E0F100010024000127A0077
:1017300000093D00F8B5044600252078C007C00F19
:10174000002871D0F94840680C21084004280BD0CB
:10175000F64840680840082812D1F4484068012142
:101760000904084088420BD1F0480068012149046F
:10177000084000286BD06068002868D10120F8BDBF
:1017800000BF6068012807D1E8480068012109040A
:101790000843E649086031E0606800280ED1E3485C
:1017A0000068012109048843E04908600846006890
:1017B000012189048843DD4908601FE0606805282D
:1017C0000ED1DA480068012189040843D74908602E
:1017D00008460068012109040843D44908600DE067
:1017E000D2480068012109048843D04908600846AE
:1017F0000068012189048843CC49086000BF606803
:10180000002812D0FFF756FB054606E0FFF752FB13
:10181000401B642801D90320B1E7C44800680121B6
:10182000490408400028F1D011E0FFF743FB0546CA
:1018300006E0FFF73FFB401B642801D903209EE729
:10184000BA4800680121490408400028F1D102216A
:1018500020680840022861D1B44840680C21084043
:1018600000280BD0B1484068084008281BD1AF4879
:101870004068012109040840002814D1AB480068E1
:1018800002210840002804D0E068012801D001208E
:1018900075E7A6480068F82188432169C900084314
:1018A000A24908603AE0E068002820D09F4800681C
:1018B000012108439D490860FFF7FCFA054606E050
:1018C000FFF7F8FA401B022801D9032057E7974891
:1018D0000068022108400028F2D094480068F821EE
:1018E00088432169C90008439049086016E08F4881
:1018F0000068400840008D490860FFF7DBFA0546A4
:1019000006E0FFF7D7FA401B022801D9032036E78B
:1019100086480068022108400028F2D1082120688A
:101920000840082831D1E069002817D07F48406A74
:10193000012108437D494862FFF7BCFA054606E0ED
:10194000FFF7B8FA401B022801D9032017E77748B0
:10195000406A022108400028F2D016E07348406A2D
:101960004008400071494862FFF7A4FA054606E0C6
:10197000FFF7A0FA401B022801D90320FFE66B48BD
:10198000406A022108400028F2D104212068084062
:10199000042871D100266548C069890608400028DE
:1019A0000DD100BF6148C06908436049C86108465D
:1019B000C06909040840009000BF00BF01265C48D0
:1019C0000068FF2101310840002816D158480068FE
:1019D000084357490860FFF76DFA054606E0FFF730
:1019E00069FA401B642801D90320C8E65048006802
:1019F000FF21013108400028F1D000BFA068012874
:101A000006D14A48006A01210843484908622BE090
:101A1000A06800280CD14548006A400840004349AE
:101A200008620846006A04218843404908621BE0B6
:101A3000A06805280CD13D48006A042108433B49B1
:101A400008620846006A01210843384908620BE031
:101A50003648006A40084000344908620846006A77
:101A6000042188433149086200BFA068002813D0D0
:101A7000FFF720FA054608E029E0FFF71BFA401BB4
:101A80002C49884201D9032079E62848006A0221BE
:101A900008400028F1D011E0FFF70CFA054607E0F6
:101AA000FFF708FA401B2349884201D9032066E664
:101AB0001E48006A022108400028F1D1012E05D1FC
:101AC0001A48C069310788431849C86100BF10210E
:101AD0002068084010285FD1606901282CD1134884
:101AE000406B04210843114948630846406B0121BB
:101AF00008430E494863FFF7DDF9054606E0FFF7A6
:101B0000D9F9401B022801D9032038E60748406B69
:101B1000022108400028F2D00448406BF821884395
:101B2000A169C90008430149486335E0001002403B
:101B300000700040881300006069401D00280FD12C
:101B40004E48406B042188434C4948630846406B2B
:101B5000F8218843A169C9000843484948631BE04C
:101B60004648406B04210843444948630846406B9B
:101B7000400840004863FFF79DF9054606E0FFF77F
:101B800099F9401B022801D90320F8E53B48406B36
:101B9000022108400028F2D1206A00286CD0374882
:101BA00040680C210840082864D0206A022847D1E8
:101BB0003248006801210906884330490860FFF770
:101BC00079F9054606E0FFF775F9401B022801D9AF
:101BD0000320D4E52948006801214906084000286F
:101BE000F1D100BF2548C06A00090001E16A08433D
:101BF0002249C862616AA06A0843204949683D22B7
:101C00001204914308431D49486000BF084600681C
:101C100001210906084319490860FFF74BF90546F9
:101C200006E0FFF747F9401B022801D90320A6E58B
:101C3000124800680121490608400028F1D01BE045
:101C40000E4800680121090688430C490860FFF727
:101C500031F9054606E0FFF72DF9401B022801D9AE
:101C600003208CE50548006801214906084000284A
:101C7000F1D101E0012082E5002080E50010024062
:101C800070B504462546681E0949884201D90120DD
:101C90000CE0681E074948610321081F01F0CEF8D7
:101CA00000200449886107200861002070BD000001
:101CB000FFFFFF0000E000E07047704710B50346EB
:101CC000002200BF3C20C05C012801D1022010BDD1
:101CD00001243C20C45400BF02243D20C454100AF7
:101CE0000002CC6820430246104603242402A0438D
:101CF0008C682043024610460124A402A0434C688D
:101D00002043024610460124E402A0430C6820430D
:101D10000246104601242403A0430C6920430246D6
:101D2000104601246403A0434C6920430246104638
:101D30000124A403A0438C692043024610460124D9
:101D4000E403A0438C6920430246186842640124DE
:101D50003D20C45400BF00243C20C45400BF0020D8
:101D6000B5E7024600BF3C20805C012801D102207B
:101D7000704701233C20835400BF02233D2083543D
:101D80001068406870239843136858601068406872
:101D90000B68184313685860106880688023984364
:101DA00013689860106880684B68184313689860DF
:101DB00001233D20835400BF00233C20835400BFF7
:101DC0000020D5E710B50446002C01D1012010BD3C
:101DD0003D20005D002805D100213C200155204612
:101DE00000F00CF802213D200155211D206801F072
:101DF000D9F901213D2001550020E8E738B5044616
:101E00001549206888420DD100BF14488069C91463
:101E100008431249886108468069C9140840009047
:101E200000BF18E00E492068884214D100BF0B485B
:101E3000C069022108430949C8610846C0690221F6
:101E40000840009000BF00BF00221020FFF78EFA6C
:101E50001020FFF77FFA38BD002C0140001002402F
:101E60000004004001460868C068012210430A6867
:101E7000D06008680068012210430A6810600020E2
:101E80007047F8B504460D46002600BF3C20005DB3
:101E9000012801D10220F8BD01213C20015500BFDD
:101EA00002213D200155206886687721304688430D
:101EB0000646FF21090230468843064620688660B0
:101EC000286850283ED00CDC202863D004DC002891
:101ED00056D0102868D158E0302860D0402863D10F
:101EE00044E0602838D070280DD001210903401A41
:101EF00002D0401A58D117E020688068C008C0009E
:101F00002168886051E0EB686A68A968206801F080
:101F1000A7F92068866877213046884306467720EF
:101F200006432068866040E0EB686A68A96820681C
:101F300001F096F92068806801218903084321682F
:101F4000886032E0EA686968206801F0E7FA5021A9
:101F5000206801F094F928E0EA686968206801F0D7
:101F6000F8FA6021206801F08AF91EE0EA686968E1
:101F7000206801F0D3FA4021206801F080F914E0D4
:101F80000021206801F07BF90FE01021206801F0AA
:101F900076F90AE02021206801F071F905E030218E
:101FA000206801F06CF900E000BF00BF01213D2076
:101FB000015500BF00213C20015500BF00206AE709
:101FC000704710B5044620680069022108404008A7
:101FD00000281CD02068C06808404008002816D09F
:101FE000481F2168086101202077206880698007E8
:101FF000800F002803D02046FFF7E2FF05E02046CF
:1020000000F0F6F8204600F09AF9002020772068CA
:10201000006904210840800800281DD02068C0689D
:1020200008408008002817D0C843216808610220B2
:10203000207720688069032109020840002803D026
:102040002046FFF7BDFF05E0204600F0D1F820460E
:1020500000F075F900202077206800690821084009
:10206000C00800281CD02068C0680840C0080028AC
:1020700016D0C84321680861042020772068C06911
:102080008007800F002803D02046FFF799FF05E066
:10209000204600F0ADF8204600F051F900202077EE
:1020A0002068006910210840000900281DD0206820
:1020B000C06808400009002817D0C843216808619B
:1020C000082020772068C069032109020840002801
:1020D00003D02046FFF774FF05E0204600F088F8A3
:1020E000204600F02CF90020207720680069C00706
:1020F000C00F01214840484000280CD02068C0682B
:10210000084048404840002805D0C81E21680861A2
:10211000204600F093F92068006980210840C0093A
:1021200000280BD02068C0680840C009002805D0EE
:10213000C843216808612046FFF7BEFD206800699A
:1021400040210840800900280BD02068C068084062
:102150008009002805D0C84321680861204600F0A6
:10216000ABF92068006920210840400900280BD005
:102170002068C06808404009002805D0C84321688D
:1021800008612046FFF799FD10BD000010B586B02C
:102190000446142101A8FDF7D4FF134920688842A2
:1021A0001FD100BF114840690121490408430F496C
:1021B000486108464069012149040840009000BF79
:1021C00000BF07200002019002200290002003902F
:1021D000032004900220059001A90920C006FEF703
:1021E00069FD06B010BD0000002C01400010024047
:1021F000704770B504460D46164600BF3C20005D92
:10220000012801D1022070BD01213C20015500BFF1
:1022100002213D200155002E06D0042E1BD0082E91
:1022200033D00C2E62D147E02946206801F034F803
:1022300020688069082108432168886120688069D6
:1022400004218843216888612068806929690843DE
:10225000216888614BE02946206801F06FF820680A
:1022600080690121C902084321688861206880696A
:102270000121890288432168886120688069296971
:10228000090208432168886131E02946206801F08D
:10229000AFF82068C069082108432168C861206838
:1022A000C069042188432168C8612068C069296920
:1022B00008432168C8611AE02946206801F0F0F857
:1022C0002068C0690121C90208432168C8612068EB
:1022D000C0690121890288432168C8612068C069FA
:1022E0002969090208432168C86100E000BF00BFF6
:1022F00001213D20015500BF00213C20015500BFB8
:10230000002080E710B50446002C01D1012010BD4B
:102310003D20005D002805D100213C2001552046CC
:1023200000F00CF802213D200155211D206800F02D
:1023300039FF01213D2001550020E8E77047704733
:1023400030B504460D4601222946206800F07AFF88
:102350000F492068884207D00E492068884203D080
:102360000D492068884201D1012000E000200028AA
:1023700006D02068406C0121C903084321684864E5
:10238000206800680121084321680860002030BDF2
:10239000002C0140004401400048014030B5044693
:1023A0000D4600222946206800F04CFF1F49206896
:1023B000884207D01E492068884203D01D49206802
:1023C000884201D1012000E00020002814D000BF85
:1023D0002068006A1849084000280CD12068006A6B
:1023E00089100840002806D12068406C0121C903EB
:1023F00088432168486400BF00BF2068006A0E4916
:10240000084000280BD12068006A89100840002885
:1024100005D120680068400840002168086000BFBE
:1024200001213D200155002030BD0000002C01405D
:1024300000440140004801401111000010B504465D
:10244000174920680968884228D116480078401C3E
:10245000C0B2144908700A2812D100200870012067
:102460001149087011480078401C1049087008464E
:102470000078642804D10020087001200C490870FD
:102480000C480078401CC0B20A490870052803D1E6
:102490000020087002F048F901F09CFF10BD000018
:1024A00068020020190000201B0000201A000020F4
:1024B0001C00002018000020704700BFFEE70168E4
:1024C0008969022211404908002902D000210268CE
:1024D000916201688969C907C90F012251405140C1
:1024E000002904D10168896911430268916170472C
:1024F00070B504460D4616462068806910210840D4
:10250000000900283AD015E0681C002812D0002DE0
:1025100004D0FEF7CFFC801BA8420BD9202141201C
:10252000015500214220015500BF4020015500BF48
:10253000032070BD206880692021084040090028E0
:10254000E2D010202168C86120202168C86120469F
:10255000FFF7B5FF206840680949084021684860D6
:1025600004206064202141200155002142200155B2
:1025700000BF4020015500BF0120DAE70020D8E766
:1025800000E800FEFFB581B0044615461E460A9FCE
:1025900001204003F2B2C30200902046029900F0ED
:1025A0003BF8394620460B9A00F0A4F8002807D0E3
:1025B000606C042802D1012005B0F0BD0320FBE7C8
:1025C000012E03D1E8B22168886216E0FF200002E4
:1025D0002840001221688862394620460B9A00F094
:1025E00089F8002806D0606C042801D10120E3E7B7
:1025F0000320E1E7E8B2216888620B983B4600229D
:1026000080210090204600F01FF8002801D0032010
:10261000D2E70020D0E70000F0B50C4600210568A5
:102620006968084D2940A505AD0D1604FF273F0434
:102630003E4035431D43059E354329430568696087
:10264000F0BD0000009800FCF8B504460E461746A1
:102650001D4616E0681C002813D0002D05D0FEF79B
:1026600029FC0699401AA8420BD920214120015586
:1026700000214220015500BF4020015500BF03202A
:10268000F8BD206880693040B04201D1012000E0EF
:102690000020B842DED00020F2E770B504460D46B7
:1026A00016461EE0324629462046FFF721FF002845
:1026B00001D0012070BD002D04D0FEF7FBFB801B74
:1026C000A8420ED9606C2021084360644120015566
:1026D00000214220015500BF4020015500BF0320CA
:1026E000E8E7206880692021084040090028D9D007
:1026F0000020DFE770B504460D46164621E032465D
:1027000029462046FFF7F4FE002801D0012070BDC5
:10271000681C002815D0002D04D0FEF7CBFB801BD1
:10272000A8420ED9606C2021084360644120015505
:1027300000214220015500BF4020015500BF032069
:10274000E5E7206880690221084040080028D6D0CB
:102750000020DCE70EB50020009001900290224896
:10276000224908600020486008212048816000213B
:10277000C160012101610421416100218161C161C8
:1027800001624162FF21C23181620021C1620163A5
:1027900001214163FDF7D4FF002801D0FDF7F4FECD
:1027A000032000900120000301900220029069465E
:1027B0000E48FDF7EBFE002801D0FDF7E5FE0420F2
:1027C000009069460948FDF7E1FE002801D0FDF7B9
:1027D000DBFE0520009069460448FDF7D7FE00287F
:1027E00001D0FDF7D1FE0EBD002401404C010020B8
:1027F00008B500BF0A4840690121084308494861FB
:1028000008464069C007C00F009000BF00BF00220B
:1028100002210920FEF7AAFD0920FEF79BFD08BD55
:102820000010024000B587B0142102A8FDF789FC12
:1028300000BF49484069012189050843464948616C
:1028400008464069012189050840019000BF00BF8A
:1028500000BF41484069491108433F494861084663
:102860004069012149040840019000BF00BF00BF3A
:10287000394840694900084337494861084640697A
:10288000012189040840019000BF00BF00223349A4
:102890003348FEF708FB0022072149033148FEF7C1
:1028A00002FB0122C0212E48FEF7FDFA0220029011
:1028B00000200390049002A92948FEF7FBF90120AB
:1028C0000290039000200490059002A92448FEF78E
:1028D000F1F90120C0020290012003900020049031
:1028E000059002A90920C006FEF7E4F9C020029075
:1028F0000120039000200490059002A91848FEF7DB
:10290000D9F907200290184803900120049002A9E9
:102910000920C006FEF7CEF90720400302900120EF
:102920000390002004900320059002A90D48FEF7B3
:10293000C1F9002211460520FEF718FD0520FEF71B
:1029400009FD002211460620FEF710FD0620FEF7C5
:1029500001FD07B000BD00000010024001080000AA
:1029600000140048000400480000311010B513485E
:102970001349086013484860002111488160012113
:10298000C1600021016141618161C1610162FEF7A5
:1029900007FB002801D0FDF7F7FD00210848FEF7EE
:1029A0008FFA002801D0FDF7EFFD00210448FEF763
:1029B000BEFA002801D0FDF7E7FD10BD005400402D
:1029C000DC0100200B02000000B595B00020119042
:1029D0001290139014900F9010901C2108A8FDF7EE
:1029E000B0FB1C2101A8FDF7ACFB3B483B4908604C
:1029F000002048600021394881603949C160FF21C9
:102A0000013101610021416180218161FFF7DAF923
:102A1000002801D0FDF7B8FD01200003119011A995
:102A20002E48FFF72EFA002801D0FDF7ADFD2B4808
:102A3000FFF768FC002801D0FDF7A6FD00200F90ED
:102A400010900FA92548FFF78CF9002801D0FDF759
:102A50009BFD602008906420099000200A900B9054
:102A60000C900D900E90002208A91C48FFF7C1FBA6
:102A7000002801D0FDF788FDC8200990042208A98C
:102A80001648FFF7B6FB002801D0FDF77DFDFF20BB
:102A90002D300990082208A91048FFF7AAFB00284A
:102AA00001D0FDF771FD0020019002900390049089
:102AB00005900120400306900020079001A90748D7
:102AC000FFF7FCF8002801D0FDF75EFD0348FFF793
:102AD0005DFB15B000BD0000002C01402802002065
:102AE000AF04000000B587B000200390049005906B
:102AF0000690019002901648164908602F20486001
:102B00000021144881601449C160002101618021C5
:102B10008161FFF757F9002801D0FDF735FD01204D
:102B20000003039003A90B48FFF7ABF9002801D07D
:102B3000FDF72AFD00200190029001A90548FFF74A
:102B400010F9002801D0FDF71FFD07B000BD0000FF
:102B50000004004068020020E703000070B505464D
:102B60000C46002D76D1230001F0AAF80604203C83
:102B7000587591AD0021AE48FFF7E2FB0421AC4847
:102B8000FFF70CFC0821AA48FFF708FC0122D1033B
:102B9000A848FEF788F9002203214903A548FEF75B
:102BA00082F9012000F010FD01248CE00421A048EE
:102BB000FFF7C6FB00219E48FFF7F0FB08219C4869
:102BC000FFF7ECFB0122D1039A48FEF76CF90022D3
:102BD000032149039748FEF766F9002000F0D4FC72
:102BE000022470E004219248FFF7AAFB00219048DC
:102BF000FFF7D4FB08218E48FFF7D0FB01225103D9
:102C00008C48FEF750F90022032189038948FEF71A
:102C10004AF9012000F0F8FC032454E0082184481C
:102C2000FFF78EFB00218248FFF7B8FB04218048A4
:102C3000FFF7B4FB012251037E48FEF734F900226E
:102C4000032189037B48FEF72EF9002000F0BCFC2D
:102C5000042438E038E008217548FFF771FB0021B3
:102C60007348FFF79BFB04217148FFF797FB012294
:102C700091037048FEF717F90022052149036D48BA
:102C8000FEF711F9012000F07FFC05241BE0002174
:102C90006748FFF755FB04216548FFF77FFB0821D4
:102CA0006348FFF77BFB012291036248FEF7FBF8C4
:102CB0000022052149035F48FEF7F5F8002000F0E7
:102CC000A3FC002400BFB1E0012DFCD1230000F0E3
:102CD000F7FF0604203C587490AC08215448FFF7D5
:102CE0002FFB00215248FFF759FB04215048FFF702
:102CF00055FB012291034F48FEF7D5F8002205212C
:102D000049034C48FEF7CFF8002000F03DFC0124B9
:102D10008BE008214648FFF713FB00214448FFF7EA
:102D20003DFB04214248FFF739FB01225103414892
:102D3000FEF7B9F80022032189033E48FEF7B3F8F5
:102D4000012000F041FC02246FE004213848FFF725
:102D5000F7FA00213648FFF721FB08213448FFF736
:102D60001DFB012251033348FEF79DF80022032189
:102D700089033048FEF797F8002000F045FC032453
:102D800053E004212A48FFF7DBFA00212848FFF727
:102D900005FB08212648FFF701FB0122D103254846
:102DA000FEF781F80022032149032248FEF77BF851
:102DB000012000F0E9FB042437E000211C48FFF764
:102DC000BFFA04211A48FFF7E9FA08211848FFF76B
:102DD000E5FA0122D1031748FEF765F80022032126
:102DE00049031448FEF75FF8002000F0EDFB0524CE
:102DF0001BE000210E48FFF7A3FA04210C48FFF75F
:102E0000CDFA08210A48FFF7C9FA012291030948BF
:102E1000FEF749F80022052149030648FEF743F86A
:102E2000012000F0F1FB002400BF00BF70BD0000D6
:102E300028020020000400487047000010B5002858
:102E400019DA1A4A03071B0F083B9B089B00D2584C
:102E50008307DC0EFF23A3409A438B071B0E8407D6
:102E6000E40EA3401A43114B0407240F083CA408A6
:102E7000A4001A5118E00E4A03231B02D21883083B
:102E80009B00D2588307DC0EFF23A3409A438B0795
:102E90001B0E8407E40EA3401A43054B03242402AF
:102EA0001B198408A4001A5110BD00001CED00E09D
:102EB00000E100E070B5002419E02146B031C8B24D
:102EC000002100F0D6F80021084600F0D2F80021D9
:102ED000102000F0CEF8002505E00121002000F0D0
:102EE000C8F8681CC5B2802DF7DB601CC4B2082C82
:102EF000E3DB70BDFFB583B006460F461C460020DD
:102F000002902046E117490F0918C910C900611A3B
:102F100005D1E117490F091849050D0E06E02046B5
:102F2000E117490F0918C910491CCDB23D4617E0F9
:102F30002946304600F086F801960BE002994A1CBB
:102F400002920C9A505C012100F093F80198401C09
:102F5000C0B20190059901988842EFDB681CC5B2A8
:102F6000A542E5DB07B0F0BD10B50021AE2000F0B2
:102F700080F80021084600F07CF80021102000F0C5
:102F800078F80021402000F074F80021B02000F013
:102F900070F80021812000F06CF80021FF2000F083
:102FA00068F80021A12000F064F80021A62000F0BC
:102FB00060F80021A82000F05CF800213F2000F01C
:102FC00058F80021C82000F054F80021D32000F068
:102FD00050F80021084600F04CF80021D52000F000
:102FE00048F80021202000F044F80021D82000F00B
:102FF00040F80021052000F03CF80021D92000F025
:1030000038F80021F12000F034F80021DA2000F037
:1030100030F80021122000F02CF80021DB2000F015
:1030200028F80021302000F024F800218D2000F045
:1030300020F80021142000F01CF80021AF2000F03F
:1030400018F810BD70B504460D462946B031C8B217
:10305000002100F00EF8F02121400911084610303F
:10306000002100F006F82007000F002100F001F811
:1030700070BD70B505460C46002C03D0284601F003
:1030800021FA02E0284601F009FA70BD7047704746
:1030900010B5FEF713F910BD00B595B0302109A8A1
:1030A000FDF74FF8002005900690079008900190DA
:1030B0000290039004901220099001200C900E9031
:1030C00010200D900F9002201190002112910521E7
:1030D000C90413910021149109A8FEF72BFB0028C5
:1030E00001D0FDF751FA072005900220069000203C
:1030F00007900890012105A8FEF7EAF9002801D001
:10310000FDF742FA202001900020049001A8FEF76C
:1031100037F9002801D0FDF737FA15B000BD0000DF
:1031200019480068012108431749086008464068AB
:103130001649084014494860084600681449084088
:1031400011490860084600680121890488430E4936
:103150000860084640683F21090488430A494860DE
:103160000846C06A00090001C8620846006BFF21DA
:1031700014318843044908630846406B4008400006
:103180004863002088607047001002400CB8FF08B8
:10319000FFFFF6FE10B50248FEF713FF10BD00005A
:1031A0006802002010B500220268214B984206D028
:1031B00001239B07984202D01E4B984205D17024F0
:1031C0001346A3431A464B681A43194B98420FD033
:1031D00001239B0798420BD0164B984208D0164B00
:1031E000984205D0154B984202D0154B984206D113
:1031F000032424021346A3431A46CB681A438024AF
:103200001346A3434C6923431A4602608B68C3628A
:103210000B688362064B984205D0084B984202D057
:10322000074B984201D10B6903630123436110BD31
:10323000002C0140000400400020004000440140F8
:103240000048014030B5002301248C402346046A25
:103250009C430462046A15468D402C43046230BDD1
:1032600070B50C4600218168FF2636020D46B54335
:1032700029461D02154325432943816070BD10B5C1
:103280000A460021816870240B46A3431946072390
:1032900013431943816010BD70B500240022002340
:1032A000056A6D086D000562026A436884697026CC
:1032B0002546B5432C46A408A4000D682C430226DD
:1032C0001546B5432A468D682A43194DA84200D1B8
:1032D00007E0184DA84200D103E0174DA8420AD1DB
:1032E00000BF08261546B5432A46CD682A43042662
:1032F0001546B5432A460E4DA84205D00D4DA842AD
:1033000002D00D4DA8420CD1FF2601361D46B54313
:103310002B4676001D46B5432B464D692B438D69E0
:103320002B43436084614D684563026270BD0000B9
:10333000002C0140004401400048014070B50024C9
:1033400000220023056A1026B5430562026A43681D
:103350008469072636032546B5432C4603263602E4
:103360002546B5432C460D682D022C4320261546D4
:10337000B5432A468D682D012A431A4DA84200D133
:1033800007E0194DA84200D100BF184DA8420BD14B
:103390000AE080261546B5432A46CD682D012A430A
:1033A00040261546B5432A460E4DA84205D00E4D7F
:1033B000A84202D00D4DA8420ED10126B6021D46EC
:1033C000B5432B4676001D46B5432B464D69AD00EF
:1033D0002B438D69AD002B43436084614D68856349
:1033E000026270BD002C01400044014000480140D1
:1033F00070B5002400220023056AFF260136B5437C
:103400000562026A4368C46970262546B5432C46A6
:10341000A408A4000D682C43012676021546B54386
:103420002A468D682D022A431A4DA84200D107E092
:10343000194DA84200D100BF184DA8420CD10BE095
:103440000126F6021546B5432A46CD682D022A43C9
:1034500076101546B5432A460E4DA84205D00E4DAE
:10346000A84202D00D4DA8420ED1012636031D46BA
:10347000B5432B4676001D46B5432B464D692D01BD
:103480002B438D692D012B434360C4614D68C56397
:10349000026270BD002C0140004401400048014020
:1034A00070B5002200230024056A01263603B543C7
:1034B0000562036A4468C269072636031546B543A8
:1034C0002A46032636021546B5432A460D682D02C4
:1034D0002A43012676031D46B5432B468D682D03EE
:1034E0002B430B4DA84205D00A4DA84202D00A4DED
:1034F000A84207D10126B6032546B5432C464D699F
:10350000AD012C434460C2614D680564036270BD27
:10351000002C0140004401400048014070B50B46BA
:10352000144600210022026A056A6D086D000562DA
:103530008169F0260D46B5432946250129430A260F
:103540001546B5432A4615461D432A468161026247
:1035500070BD70B50B46144600210022056A102686
:10356000B54305628169026A0F2636030D46B543ED
:10357000294625032943A0261546B5432A461D01A1
:103580002A438161026270BD01280BD10D49C968CF
:1035900081430C4AD1601146896801221143094ACE
:1035A00091600DE000280BD106498968490849005F
:1035B000044A91601146C96801221143014AD16051
:1035C000704700000004014001280CD10D49C96872
:1035D000022291430B4AD1601146896802221143AD
:1035E000084A91600DE000280BD106498968022243
:1035F0009143044A91601146C96802221143014A6D
:10360000D16070470004014001280CD10D49C96800
:10361000042291430B4AD160114689680422114368
:10362000084A91600DE000280BD106498968042200
:103630009143044A91601146C96804221143014A2A
:10364000D160704700040140F8B500F0E1FE044687
:1036500000F000FF054600F003FF06460027814802
:10366000007801287DD1002D7DD100BF00F0D0FE73
:10367000002801D0012400E00024022E02D0052EF3
:1036800062D130E004217848FEF75AFE00217648E6
:10369000FEF784FE08217448FEF780FE002C16D148
:1036A000012251037148FDF7FEFB0022032189032B
:1036B0006E48FDF7F8FB0120FFF7A6FF032001F09D
:1036C0001FF800F0C6FE074600F00AFD0AE00122DE
:1036D000D1036648FDF7E7FB002203214903634855
:1036E000FDF7E1FB30E0012291036048FDF7DBFBD1
:1036F0000022052149035D48FDF7D5FB002C17D0BA
:1037000000215948FEF71CFE04215748FEF746FEEB
:1037100008215548FEF742FE0020FFF775FF002004
:1037200000F0EEFF00F095FE074600F0D9FC0BE03C
:1037300008214D48FEF704FE00214B48FEF72EFEFF
:1037400004214948FEF72AFE00BF00F061FE002870
:1037500001D0002C8AD000F05BFE002801D1002CA3
:1037600084D17EE0FFE7012D7BD100BF00F050FE49
:10377000002801D0012400E00024012E02D0042EF4
:1037800062D130E008213848FEF7DAFD00213648E2
:10379000FEF704FE04213448FEF700FE002C16D08C
:1037A000012251033148FDF77EFB002203218903EA
:1037B0002E48FDF778FB0120FFF706FF022000F0FE
:1037C0009FFF00F046FE074600F08AFC0AE0012257
:1037D00091032648FDF767FB002205214903234892
:1037E000FDF761FB30E00122D1032048FDF75BFBD0
:1037F0000022032149031D48FDF755FB002C17D17A
:1038000000211948FEF79CFD04211748FEF7C6FD6C
:1038100008211548FEF7C2FD0020FFF7D5FE052060
:1038200000F06EFF00F015FE074600F059FC0BE0BB
:1038300004210D48FEF784FD00210B48FEF7AEFD84
:1038400008210948FEF7AAFD00BF00F0E1FD0028AD
:1038500001D0002C8AD000F0DBFD002801D1002C23
:1038600084D1F8BD00000020280200200004004898
:10387000F8B500F0D8FD044600F0ECFD054600F078
:10388000EFFD064600278148007801287DD1002DF4
:103890007DD100BF00F0C7FD002801D0012400E069
:1038A0000024012E02D0042E62D131E00122D10386
:1038B0007748FDF7F8FA0022032149037448FDF721
:1038C000F2FA002C17D004217248FEF739FD0021CE
:1038D0007048FEF763FD08216E48FEF75FFD00208B
:1038E000FFF752FE022000F00BFF00F0B2FD07468A
:1038F00000F0F6FB0BE000216648FEF721FD0421F5
:103900006448FEF74BFD08216248FEF747FD2FE0B3
:1039100008216048FEF714FD00215E48FEF73EFDD9
:1039200004215C48FEF73AFD002C16D101229103D8
:103930005748FDF7B8FA0022052149035448FDF71E
:10394000B2FA0120FFF720FE052000F0D9FE00F0BA
:1039500080FD074600F0C4FB0AE0012251034C48F9
:10396000FDF7A1FA0022032189034948FDF79BFADC
:1039700000BF00F058FD002801D0002C8AD000F0D4
:1039800052FD002801D1002C84D17EE0FFE7012DFB
:103990007BD100BF00F047FD002801D0012400E0EA
:1039A0000024022E02D0052E62D131E00122510303
:1039B0003748FDF778FA0022032189033448FDF7E0
:1039C00072FA002C17D004213248FEF7B9FC00210E
:1039D0003048FEF7E3FC08212E48FEF7DFFC00200C
:1039E000FFF712FE032000F08BFE00F032FD0746C9
:1039F00000F076FB0BE008212648FEF7A1FC002131
:103A00002448FEF7CBFC04212248FEF7C7FC2FE038
:103A100000212048FEF794FC04211E48FEF7BEFC5E
:103A200008211C48FEF7BAFC002C16D10122910394
:103A30001748FDF738FA0022052149031448FDF71D
:103A400032FA0120FFF7E0FD002000F059FE00F0FF
:103A500000FD074600F044FB0AE00122D1030C48B8
:103A6000FDF721FA0022032149030948FDF71BFA5B
:103A700000BF00F0D8FC002801D0002C8AD000F054
:103A8000D2FC002801D1002C84D1F8BD0000002018
:103A90000004004828020020F8B500F0CFFC0446DE
:103AA00000F0D8FC054600F0DBFC06460027814804
:103AB000007801287DD1002D7DD100BF00F0BEFC33
:103AC000002801D0012400E00024002E02D0032EA3
:103AD00062D130E000217848FEF732FC04217648BC
:103AE000FEF75CFC08217448FEF758FC002C16D148
:103AF0000122D1037148FDF7D6F9002203214903C1
:103B00006E48FDF7D0F90120FFF75EFD012000F0BF
:103B1000F7FD00F09EFC074600F0E2FA0AE0012201
:103B200091036648FDF7BFF9002205214903634868
:103B3000FDF7B9F930E0012251036048FDF7B3F910
:103B40000022032189035D48FDF7ADF9002C17D051
:103B500008215948FEF7F4FB00215748FEF71EFCE8
:103B600004215548FEF71AFC0020FFF72DFD042024
:103B700000F0C6FD00F06DFC074600F0B1FA0BE066
:103B800004214D48FEF7DCFB00214B48FEF706FC04
:103B900008214948FEF702FC00BF00F04FFC002856
:103BA00001D0002C8AD000F049FC002801D1002C63
:103BB00084D17EE0FFE7012D7BD100BF00F03EFC09
:103BC000002801D0012400E00024002E02D0032EA2
:103BD00062D131E0012291033848FDF764F90022F7
:103BE000052149033548FDF75EF9002C17D008215F
:103BF0003148FEF7A5FB00212F48FEF7CFFB04213B
:103C00002D48FEF7CBFB0020FFF7BEFC012000F0A3
:103C100077FD00F01EFC074600F062FA0BE0002181
:103C20002548FEF78DFB04212348FEF7B7FB08214A
:103C30002148FEF7B3FB2FE004211F48FEF780FB6D
:103C400000211D48FEF7AAFB08211B48FEF7A6FB32
:103C5000002C16D10122D1031848FDF724F90022C7
:103C6000032149031548FDF71EF90120FFF78CFCDD
:103C7000042000F045FD00F0ECFB074600F030FAB0
:103C80000AE0012251030D48FDF70DF9002203213E
:103C900089030A48FDF707F900BF00F0CFFB0028B1
:103CA00001D0002C8AD000F0C9FB002801D1002CE3
:103CB00084D1F8BD00000020280200200004004844
:103CC00030B47446641E2578641CAB4204D3635D33
:103CD0005B00E31830BC18471D46F8E702E008C84F
:103CE000121F08C1002AFAD170477047002001E076
:103CF00001C1121F002AFBD17047000070B50446B5
:103D000007254B20C000844207DB07201E490870AE
:103D10001E481F490880072070BD322C05DA00209C
:103D2000194908701A490880F6E7204632381C21E4
:103D3000FCF7ECF9C5B21448007885421AD0124855
:103D40000078854209DD12480088201A232811DDF9
:103D50000D4805700E4804800CE00B480078A8421E
:103D600008DD0B480088001B232803DD064805708A
:103D70000748048004480078062802DD062002492E
:103D8000087001480078C7E75A000020DE030000F1
:103D90005800002030B50021002200BF08E04B0091
:103DA0000B4CE45A4B1C5B00094DEC524B1CD9B236
:103DB0000929F4DB064B1880002105E04B00044C78
:103DC000E35A9A184B1CD9B20A29F7DB90B230BDDE
:103DD0003801002070B5044600252648844207DBE0
:103DE000232025490870234824490880232070BDDA
:103DF000322C05DA00202049087020490880F6E7B7
:103E0000204632381C21FCF781F9C5B21A480078E7
:103E100085421AD018480078854209DD1748008885
:103E2000201A0E2811DD14480570144804800CE097
:103E300011480078A84208DD10480088001B0E28B1
:103E400003DD0D4805700D4804800B4800782228DA
:103E500003DD22200849087006E0074800780128A1
:103E600002DA01200449087003480078401CC0B2FF
:103E7000BDE70000DE0300005600002054000020D3
:103E800010B509480088401C80B2074908807D2190
:103E9000C900884207D100200349088000F026F9B4
:103EA00000200249087010BD5200002026000020AA
:103EB00070B500F047FB04460B48057800F0D6FAD1
:103EC000064609480672002D05DD012007490870E5
:103ED0000549087302E0002003490873012C01D151
:103EE00000F0FAFB70BD0000D40000202600002086
:103EF00010B500F027FB04462F480088401C2E49CF
:103F000008800846008800F001FC2B4800886428DF
:103F100037DD00F0FBFA00280BD00B202749087092
:103F2000052027490870002023490880254908708A
:103F300027E000F0FBFA00280BD00520204908708C
:103F40000C201E49087000201B4908801D4908707C
:103F500017E000F00FFB002813D11749088019481B
:103F60000078401C1749087008460078032808DDCF
:103F70000520134908700C201049087000201149D1
:103F8000087000F0F7FA00280CD002200C490870E5
:103F900001200D49887200F029FC002006490880A4
:103FA00008490870012C05D103200549087000203C
:103FB0000549887210BD00004A000020270000203B
:103FC000260000204C000020D400002010B513482B
:103FD0000078002807D100F05BFA11490880012021
:103FE0000E49087018E00E4800880A2805DD0C48C4
:103FF00000880A380A49088002E000200849088041
:104000000748008800F082FB05480088002803D19B
:10401000044908700449087310BD000050000020D6
:104020004E00002026000020D400002070B500F0D3
:1040300089FA044600F01AFA054625480678012C4C
:1040400005D10020224988720320224908702048A7
:10405000007AA84205D000201D49887203201D491E
:104060000870002E05D100201949887203201949D3
:10407000087000F055FA002808D000201649087092
:104080000520144908700C201449087000F04EFAFD
:10409000002810D010480078401CC0B20E490870AB
:1040A000642813D10020087005200A4908700C20EC
:1040B0000A4908700AE000F051FA012803D10020F3
:1040C0000549087002E000200349087070BD000037
:1040D000D4000020260000204D00002027000020F2
:1040E0000020014908807047440000200020014959
:1040F0000870704727000020F8B50446A0000A4960
:104100000D580A4E00957678084FFF78F619F3B2ED
:10411000064E3678054FBF78F619F2B2034E717825
:104120003078FEF7E7FEF8BD740000205B00002049
:10413000F1B584B00A210498FBF7E8FFCCB20A215C
:104140000498FBF7E3FFC5B2A80022490858039082
:10415000A000085802900846806A019001981E4EFF
:10416000009076781C4FFF78F619F3B21A4E367825
:10417000194FBF78F619F2B2174E71783078FEF702
:10418000B9FE0398154E00907678144FFF78F61913
:10419000F3B2124E3678114FBF78F619F2B20F4EC5
:1041A00071783078FEF7A6FE02980D4E0090767872
:1041B0000B4FFF78F619F3B2094E3678084FBF78E7
:1041C000F619F2B2064E71783078FEF793FE05B01C
:1041D000F0BD000094000020600000206500002079
:1041E0006A000020F8B50446A0000D490D58002CC7
:1041F00002D0012C00D0F8BD0A4E00957678094F08
:10420000FF78F619F3B2074E3678064FBF78F619E5
:10421000F2B2044E71783078FEF76CFE00BFEAE728
:10422000C40000206F000020F1B584B00A2104987A
:10423000FBF76CFFCCB20A210498FBF767FFC5B20D
:10424000A800224908580390A00008580290084688
:10425000C06A019003981E4E009076781C4FFF783C
:10426000F619F3B21A4E3678194FBF78F619F2B232
:10427000174E71783078FEF73DFE0298154E00908B
:104280007678144FFF78F619F3B2124E3678114F44
:10429000BF78F619F2B20F4E71783078FEF72AFE29
:1042A00001980D4E009076780B4FFF78F619F3B217
:1042B000094E3678084FBF78F619F2B2064E71787B
:1042C0003078FEF717FE05B0F0BD00009400002026
:1042D00060000020650000206A00002070B50446E0
:1042E000E5B2A900014A5058804770BD0400002083
:1042F00010B50C490888FFF76DFD0B490880094986
:104300008888FFF747FD0849C88006494888FFF7B5
:10431000F5FC0649087000F091FA01200449C870C4
:1043200010BD000020000020D40000202C00002040
:104330002800002010B5034909788900024A505826
:10434000804710BD260000203000002010B51E4818
:10435000C07801281ED11D480078FFF7CDFE1C490A
:10436000087AFFF73FFF00F08DF8002804D11849C4
:104370000878FFF759FF0DE000F084F80C2803D10E
:104380000A20FFF7D5FE05E000F07CF80B2801D1EC
:10439000FFF7CEFE0C480078012803D10B480078C7
:1043A000FFF7AAFE08488078012803D10849087A57
:1043B000FFF718FF04484078012803D10449087822
:1043C000FFF732FF10BD0000280000202C00002065
:1043D000D40000200B480088401C80B209490880A6
:1043E000142804D108480088401C07490880064862
:1043F0000088142805D100200349088001200349C2
:10440000088070474400002046000020480000203B
:1044100010B501210920C006FCF73CFD002800D1A1
:1044200010BD0120FCE710B502210920C006FCF7F1
:1044300031FD002800D110BD0120FCE710B504219A
:104440000920C006FCF726FD002800D110BD012080
:10445000FCE770470148007A70470000D400002054
:104460000148C07A70470000D400002010B5022136
:104470000348FCF70FFD002800D110BD0120FCE728
:104480000014004801480078704700002700002011
:104490000149496B88B27047002C014001B584B0D6
:1044A000FF200130012104AA0B46009201910290E5
:1044B000002278210248FCF7DDFD05B000BD0000B8
:1044C000DC01002001B584B0FF200130012104AAE5
:1044D0000B46009201910290402278210248FCF79D
:1044E000C9FD05B000BD0000DC01002002490878CC
:1044F0000021014A117070471B0000200249087812
:104500000021014A117070471C0000200348C08838
:10451000322801DA012070470020FCE7D400002097
:104520000148007870470000480000200448C08817
:104530007D21C900884201DD012070470020FCE791
:10454000D400002010B502210348FCF7A3FC00288A
:1045500000D110BD0120FCE7001400480448C088C9
:1045600019214901884201DA012070470020FCE747
:10457000D400002003480078052801DD01207047A1
:104580000020FCE70100002010B5FFF7DBFF00284A
:1045900002D100F0ABF801E000F09EF810BD000081
:1045A000FCF794FEFEF778FD6420FCF75CFBFEF759
:1045B00039F9FEF71DF9FEF7CDF8FEF7D7F9FEF74A
:1045C00003FAFEF78FFAFFF7DFFF0E48FDF74AFC0C
:1045D000FEF7CAFCFEF76EFC642000F097F80FE0CF
:1045E000FFF784FF002809D000F00EF8641C052CAA
:1045F00000DD0024E1B20020FEF7B0FAFFF77EFFF5
:10460000EEE700006802002010B5FFF771FEFFF72B
:1046100091FEFFF79BFE10BD10B50446616820684F
:10462000FBF7EBFD6062616AA068FBF7EEFD60617D
:10463000616CA06BFBF74CFE0AD20021606AFBF7AD
:104640003DFE1AD8616A206AFBF786FD206214E0FD
:104650000021A06BFBF732FE0AD20021606AFBF753
:1046600037FE0AD8616A206AFBF776FD206204E013
:10467000616A206AFBF770FD2062E16A206AFBF73D
:1046800027FE02D2E06A206206E0216B206AFBF777
:1046900015FE01D8206B2062216AE068FBF7B5FDAA
:1046A000A061606AA062A1696069FBF755FD606363
:1046B000606BA063216C606BFBF700FE02D2206C84
:1046C000606306E0E16B606BFBF702FE01D2E06B1A
:1046D0006063606B10BD000010B50022012102482C
:1046E000FCF7E1FB10BD00000014004810B50122EA
:1046F00011460248FCF7D7FB10BD0000001400482B
:104700000149C87270470000D40000200449884263
:1047100000DD0846034948638863C86370470000AA
:104720009C040000002C014070B52D4800887D21BC
:10473000C900484384B200252948807A01284BD11A
:104740002046FBF79FFD0646264801683046FBF7EA
:10475000BFFD16D2234908682349FBF7FDFC214918
:1047600008602046FBF78EFD06461E48016830466D
:10477000FBF7A4FD25D22046FBF784FD194908600C
:104780001FE02046FBF77EFD0646164801683046CE
:10479000FBF794FD15D2134908681349FBF72DFD6B
:1047A000104908602046FBF76DFD06460D4801687C
:1047B0003046FBF78DFD04D22046FBF763FD094927
:1047C00008600848FFF728FF0646FBF762FD85B240
:1047D0002846FFF79BFF02E000200249086070BDF9
:1047E000D4000020E40000200000C8420D480E491B
:1047F00088600020C86048618861C8610B48C86251
:10480000002008634863886309484864C86309480E
:1048100008640020486008624862886206480860B0
:10482000704700000AD7233CE400002000247449AC
:1048300000809344000048420000FA4410B503226F
:1048400002490348FCF7B8F810BD00002000002022
:104850004C01002000FCFEFE0606060606060606C3
:104860000606060606060606060606FEFEFCE0C06E
:1048700000003F7F7F6060606060606060606060DB
:1048800060606060606060607F7F3F07030000FCE5
:10489000FEFE06F6F60606060606060606060606E8
:1048A0000606060606FEFEFCE0C000003F7F7F60B5
:1048B0006F6F6060606060606060606060606060DA
:1048C00060607F7F3F07030000FCFEFE06F6F606F1
:1048D000F6F606060606060606060606060606FEA0
:1048E000FEFCE0C000003F7F7F606F6F606F6F6015
:1048F0006060606060606060606060607F7F3F07F4
:10490000030000FCFEFE06F6F606F6F606F6F606D0
:10491000060606060606060606FEFEFCE0C00000C9
:104920003F7F7F606F6F606F6F606F6F6060606010
:104930006060606060607F7F3F07030000FCFEFEF8
:1049400006F6F606F6F606F6F606F6F60606060687
:10495000060606FEFEFCE0C000003F7F7F606F6F32
:10496000606F6F606F6F606F6F60606060606060ED
:104970007F7F3F07030000FCFEFE06F6F606F6F614
:1049800006F6F606F6F606F6F606060606FEFEFC41
:10499000E0C000003F7F7F606F6F606F6F606F6F80
:1049A000606F6F606F6F606060607F7F3F070300C4
:1049B00000FCFEFE06F6F606F6F606F6F606F6F637
:1049C00006F6F606F6F606FEFEFCE0C000003F7FA7
:1049D0007F606F6F606F6F606F6F606F6F606F6F22
:1049E000606F6F607F7F3F07030000FCFEFE0606DE
:1049F00006060606C6E0F0FC8080808606060606EF
:104A000006FEFEFCE0C000003F7F7F6060606060EB
:104A1000610101211F0F03616060606060607F7F42
:104A20003F0703000000000000000000000000003D
:104A30000000000000000000000000000000000076
:104A4000000000000000C0E0F0F8F8FCFC7C7E3EB6
:104A50003E3E3E7CFCFCF8F8F0E0C0800000000028
:104A600000E0FCFFFFFFFFFF0F030000000000005D
:104A7000000000010FFFFFFFFFFFFCF00000FCFF44
:104A8000FFFFFFFFFF00000000000000000000002B
:104A900000000000FFFFFFFFFFFFFE003FFFFFFFE2
:104AA000FFFFFF0000000000000000000000000009
:104AB0000000FFFFFFFFFFFF3F0000073FFFFFFF7A
:104AC000FFFFF0C000000000000000000080F0FFC9
:104AD000FFFFFFFF3F0700000000000003070F1F5C
:104AE0001F3F3F3E7E7C7C7C7E3E3F3F1F1F0F076B
:104AF00003000000000000000000000000000000B3
:104B000000000000000000000000000000000000A5
:104B10000000000000000000000000000000000095
:104B20000000000000000000000000000000000085
:104B300000000000000000000080C0C0E0E0F0F0D5
:104B4000F8F8FCFCFCFCFCFCFC0000000000000091
:104B500000000000000000000F0F07030301010028
:104B6000FFFFFFFFFFFFFF0000000000000000004C
:104B70000000000000000000000000000000FFFF37
:104B8000FFFFFFFFFF00000000000000000000002A
:104B9000000000000000000000000000FFFFFFFF19
:104BA000FFFFFF0000000000000000000000000008
:104BB00000000000000000000000FFFFFFFFFFFFFB
:104BC000FF000000000000000000000000000000E6
:104BD00000000000000000003F3F3F3F3F3F3F001C
:104BE00000000000000000000000000000000000C5
:104BF00000000000000000000000000000000000B5
:104C000000000000000000000000000000000000A4
:104C10000000000000000000000000000000000094
:104C20000000000040E0F0F0F0F8F8F87C7C7C7CBC
:104C30007CFCFCF8F8F8F0F0E0C080000000000018
:104C40000000000107030100000000000000000058
:104C50000001030FFFFFFFFFFFFFF800000000004F
:104C60000000000000000000000000000000000044
:104C7000C0F8FFFFFFFFFF3F03000000000000003F
:104C8000000000000000000080C0F0F8FCFFFFFF03
:104C90003F1F07030000000000000000000000802C
:104CA000C0F0F8FCFEFF7F3F1F0F0703010000006C
:104CB000000000000000000000787C7E7F7F7F7F86
:104CC0007F7F7D7C7C7C7C7C7C7C7C7C7C7C7C7C1D
:104CD0007C7C7C7C000000000000000000000000E4
:104CE00000000000000000000000000000000000C4
:104CF00000000000000000000000000000000000B4
:104D000000000000000000000000000000000000A3
:104D1000000000000030F8F8FC7C7C7C3E3E3E3E0B
:104D20007E7E7EFCFCFCF8F8F0E0C0000000000095
:104D30000000000001000000000000000000000072
:104D4000000003FFFFFFFFFFFF7E000000000000E8
:104D5000000000000000E0E0E0E0E0F0F0F8F8FC27
:104D6000FFBFBF1F0F070100000000000000000090
:104D700000000000010101010101010303070F1FF1
:104D80003FFFFFFEFCF8F080000000000080000004
:104D900000000000000000000000000000C0E0FF74
:104DA000FFFFFFFFFF1F000000001C1F1F3F3E3ED4
:104DB0003E7C7C7C7C7C7C7E3E3E3F3F1F1F0F0701
:104DC00007010000000000000000000000000000DB
:104DD00000000000000000000000000000000000D3
:104DE00000000000000000000000000000000000C3
:104DF00000000000000000000000000000000000B3
:104E000000000000000000000000000000000000A2
:104E1000C0F0F8FCFCFCFCFCFCFC00000000000006
:104E2000000000000000000000C0F0F8FEFF7F1F3F
:104E30000701FFFFFFFFFFFF000000000000000070
:104E40000000C0F0F8FEFF7F3F0F030100000000EC
:104E5000FFFFFFFFFFFF000000000000F0F8FEFF73
:104E6000FFFFEFE7E1E0E0E0E0E0E0E0E0E0FFFFAF
:104E7000FFFFFFFFE0E0E0E0E000030303030303C4
:104E8000030303030303030303030303FFFFFFFF02
:104E9000FFFF030303030300000000000000000005
:104EA000000000000000000000003F3F3F3F3F3F88
:104EB00000000000000000000000000000000000F2
:104EC00000000000000000000000000000000000E2
:104ED00000000000000000000000000000000000D2
:104EE00000000000000000000000000000000000C2
:104EF0000000000000000000E0FCFCFCFCFC7C7CEE
:104F00007C7C7C7C7C7C7C7C7C7C7C7C7C00000055
:104F10000000000000F0FFFFFFFFFF0000000000A6
:104F20000000000000000000000000000000000081
:104F30000000303F3F3F3F3F3C3C3C3C7C7C7CF8AA
:104F4000F8F8F8F0F0E0C080000000000000000079
:104F5000000000000000000000000000000001034D
:104F60000FFFFFFFFFFFFEF00000000000800000C9
:104F700000000000000000000000000080C0F0FF02
:104F8000FFFFFFFF3F07000000001C1F3F3E3E3EAB
:104F90007C7C7C7C7C7C7E3E3E3F3F1F1F0F070756
:104FA0000100000000000000000000000000000000
:104FB00000000000000000000000000000000000F1
:104FC00000000000000000000000000000000000E1
:104FD00000000000000000000000000000000000D1
:104FE000000000000000000000008080C0E0E0F051
:104FF000F0F0F8F8F8F87C7C7C7C7C000000000085
:10500000000000C0F0F8FEFFFF7F3F0F070703011D
:10501000010000000000000000000000000000F897
:10502000FFFFFFFFFFE7E1F07878383C3C3C3C7C39
:105030007CFCF8F8F8F0E0E080000000FFFFFFFFE4
:10504000FFFFFF070100000000000000000000005B
:10505000010FFFFFFFFFFFFEF000011F7FFFFFFFBB
:10506000FFF8E08000000000000000000000C0F039
:10507000FFFFFFFFFF3F07000000000103070F1FB6
:105080001F3F3F3E7E7C7C7C7C7E3E3F3F1F1F0F50
:105090000703000000000000000000000000000006
:1050A0000000000000000000000000000000000000
:1050B00000000000000000000000000000000000F0
:1050C00000000000000000000000000000000000E0
:1050D0000000007C7C7C7C7C7C7C7C7C7C7C7C7C84
:1050E0007C7C7C7C7C7C7CFCFCFCFCFCFC7C0000F8
:1050F00000000000000000000000000000000000B0
:105100000080F0FCFFFFFFFF1F0701000000000010
:10511000000000000000000000000080E0F8FEFF3A
:10512000FFFF7F0F030000000000000000000000F0
:10513000000000000000C0F0FCFFFFFFFF1F0701A0
:10514000000000000000000000000000000000005F
:1051500080E0FCFFFFFFFF7F0F0300000000000066
:10516000000000000000000000000020383E3F3F2B
:105170003F3F1F070100000000000000000000008A
:10518000000000000000000000000000000000001F
:10519000000000000000000000000000000000000F
:1051A00000000000000000000000000000000000FF
:1051B00000000000000000000000000000000000EF
:1051C000000000000080C0E0F0F8F8FC7C3C3E1ECF
:1051D0001E1E3E3C7CFCFCF8F8F0E0800000000065
:1051E00000007CFFFFFFFFFFFF81000000000000C8
:1051F00000000081FFFFFFFFFFFF3E0000000000F6
:105200000001070F1F3FBFFFFEFCF8F8F0F0F8F8B1
:10521000FEFFFFBF1F0F07010000000000C0F0F8F5
:10522000FCFEFF7F1F0F07070303030307070F1F82
:105230003FFFFFFFFEFCF8E080003FFFFFFFFFFFA6
:10524000FFC000000000000000000000000000C0DF
:10525000FFFFFFFFFFFF3F00000103070F1F1F3F7E
:105260003F3E3C7C78787878783C3C3E3F1F1F0F6F
:105270000F07030000000000000000000000000015
:10528000000000000000000000000000000000001E
:10529000000000000000000000000000000000000E
:1052A00000000000000000000000000000000000FE
:1052B0000000000000C0E0F0F0F8F8FC7C3C1C1E90
:1052C0001E1E3E3C7CFCFCF8F0F0E080000000007C
:1052D000E0FCFFFFFFFFFF0F0100000000000000E7
:1052E00000000000031FFFFFFFFFFFF880000F7F9B
:1052F000FFFFFFFFFFF08000000000000000000043
:10530000000080C0FFFFFFFFFFFFFF000000010360
:10531000070F1F1F1F3F3E3E3C3C3C3C1C1E1E0F08
:105320000FE7FFFFFFFFFF3F01000000000000004C
:1053300000000000000000008080C0E0F8FCFFFFDB
:10534000FF3F1F0701000000000000007C7C7C7C08
:105350007C3C3E3E3F3F1F1F0F0F07030301000031
:10536000000000000000000000000000000000003D
:10537000000000000000000000000000000000002D
:10538000000000000000000000000000000000001D
:10539000000000000000000000000000000000000D
:1053A0000000000000FCFCFCFCFCFCFC7C7C7C7C29
:1053B0007C7C7C7C7C7C7C7C7C7C7C7C000000001D
:1053C000000000FFFFFFFFFFFFFF000000000000E4
:1053D00000000000000000000000000000000000CD
:1053E00000FFFFFFFFFFFFFFE0E0E0E0E0E0E0E0C4
:1053F000E0E0E0E0E0E0E0E000000000000000FFAE
:10540000FFFFFFFFFFFF0303030303030303030384
:1054100003030303030300000000000000FFFFFF7D
:10542000FFFFFFFF00000000000000000000000080
:1054300000000000000000000000007F7F7F7F7FF1
:105440007F7F7C7C7C7C7C7C7C7C7C7C7C7C7C7C96
:105450007C7C7C00000000000000000000000000D8
:10546000000000000000000000000000000000003C
:10547000000000000000000000000000000000002C
:10548000000000000000000000000000000000001C
:10549000000000000000000000000000000000000C
:1054A00000000000000000000000000000000000FC
:1054B00000000000000000000000000000000000EC
:1054C00000000000000000000000000000000000DC
:1054D00000000000000000000000000000000000CC
:1054E00000000000000000000000000000000000BC
:1054F00000000000000000000000000000000000AC
:10550000000000000000000000000000FE806010AD
:105510001000F020101000F020101020C000F0202B
:105520001010E0201010E00000000700010204004D
:1055300007000000003F0204040201000700000011
:10554000070000000700000000000000000000004D
:10555000000000000000000000000000000000004B
:10556000000000000000000000000000000000003B
:10557000000000000000000000000000000000002B
:10558000000000000000000000000000000000001B
:10559000FCFCFEFE0E0E0E0E0E0E1C3C7CF8F8F00F
:1055A000C00000000000000000000000000000003B
:1055B000000000FFFFFFFF808080808080C0E0F05F
:1055C000FF7F3F0F0000000000000000000000000F
:1055D000000000000000FFFFFFFF030303030307B9
:1055E0000F1FFEFEFCE000000000000000000000B5
:1055F0000000000000000000003F3F3F3F000000AF
:105600000000000000011F3F3F3E2000000000009E
:10561000000000000000000000000000000000008A
:10562000000000000000000000000000000000007A
:10563000000000000000000000000000000000006A
:10564000000000000000000000000000000000005A
:10565000000000000000000000000000000000004A
:10566000000000FEFEFEFE0E0E0E0E0E0E0E0E0EC4
:105670000E0E00000000000000000000000000000E
:10568000000000000000FFFFFFFFC0C0C0C0C0C09E
:10569000C0C0C0C00000000000000000000000000A
:1056A000000000000000000000FFFFFFFF010101FB
:1056B00001010101010101000000000000000000E3
:1056C0000000000000000000000000003F3F3F3FDE
:1056D00000000000000000000000000000000000CA
:1056E00000000000000000000000000000000000BA
:1056F00000000000000000000000000000000000AA
:105700000000000000000000000000000000000099
:10571000002F000000000700070000147F147F1412
:1057200000242A7F2A120062640813230036495598
:10573000225000000503000000001C224100000070
:1057400041221C000014083E08140008083E080806
:10575000000000A060000008080808080000606061
:105760000000002010080402003E5149453E0000A0
:10577000427F4000004261514946002141454B3182
:10578000001814127F10002745454539003C4A494E
:1057900049300001710905030036494949360006C0
:1057A0004949291E00003636000000005636000028
:1057B00000081422410000141414141400004122A3
:1057C000140800020151090600324959513E007C7B
:1057D0001211127C007F49494936003E4141412265
:1057E000007F4141221C007F49494941007F09094E
:1057F0000901003E4149497A007F0808087F0000FE
:10580000417F4100002040413F01007F08142241B8
:10581000007F40404040007F020C027F007F040870
:10582000107F003E4141413E007F09090906003ECC
:105830004151215E007F09192946004649494931F5
:105840000001017F0101003F4040403F001F204018
:10585000201F003F4038403F0063140814630007D6
:105860000870080700615149454300007F4141002D
:1058700000552A552A55000041417F0000040201CD
:1058800002040040404040400000010204000020AB
:1058900054545478007F48444438003844444420E9
:1058A00000384444487F00385454541800087E0996
:1058B00001020018A4A4A47C007F0804047800005E
:1058C000447D4000004080847D00007F102844001B
:1058D0000000417F4000007C04180478007C08042C
:1058E000047800384444443800FC24242418001868
:1058F000242418FC007C0804040800485454542054
:1059000000043F444020003C4040207C001C2040DC
:10591000201C003C4030403C004428102844001C1F
:10592000A0A0A07C004464544C4414141414141417
:105930000000000000000000000000000000000067
:10594000000000F8000000000000003330000000FC
:1059500000100C06100C0600000000000000000003
:1059600040C07840C0784000043F04043F04040075
:10597000007088FC08300000001820FF211E000085
:10598000F008F000E018000000211C031E211E009A
:1059900000F00888700000001E2123241927211020
:1059A00010160E00000000000000000000000000C3
:1059B000000000E01804020000000007182040006A
:1059C00000020418E000000000402018070000005A
:1059D000404080F0804040000202010F01020200BE
:1059E000000000F0000000000101011F01010100A2
:1059F000000000000000000080B070000000000007
:105A0000000000000000000000010101010101018F
:105A10000000000000000000003030000000000026
:105A200000000000806018040060180601000000FB
:105A300000E010080810E000000F102020100F00F8
:105A4000001010F8000000000020203F202000007F
:105A500000700808088870000030282422213000D7
:105A600000300888884830000018202020110E00DF
:105A70000000C02010F8000000070424243F240088
:105A800000F80888880808000019212020110E005D
:105A900000E0108888180000000F112020110E006F
:105AA00000380808C83808000000003F0000000067
:105AB0000070880808887000001C222121221C0028
:105AC00000E010080810E0000000312222110F0051
:105AD000000000C0C00000000000003030000000E6
